{
  "contractName": "GoldVerification",
  "abi": [
    {
      "anonymous": false,
      "inputs": [
        {
          "indexed": false,
          "internalType": "uint256",
          "name": "goldId",
          "type": "uint256"
        },
        {
          "indexed": true,
          "internalType": "address",
          "name": "owner",
          "type": "address"
        },
        {
          "indexed": false,
          "internalType": "bytes10",
          "name": "shopId",
          "type": "bytes10"
        }
      ],
      "name": "GoldRegistered",
      "type": "event"
    },
    {
      "anonymous": false,
      "inputs": [
        {
          "indexed": false,
          "internalType": "uint256",
          "name": "goldId",
          "type": "uint256"
        },
        {
          "indexed": true,
          "internalType": "address",
          "name": "from",
          "type": "address"
        },
        {
          "indexed": true,
          "internalType": "address",
          "name": "to",
          "type": "address"
        }
      ],
      "name": "GoldTransferred",
      "type": "event"
    },
    {
      "inputs": [
        {
          "internalType": "uint256",
          "name": "",
          "type": "uint256"
        }
      ],
      "name": "goldAssets",
      "outputs": [
        {
          "internalType": "uint256",
          "name": "goldId",
          "type": "uint256"
        },
        {
          "internalType": "uint16",
          "name": "weight",
          "type": "uint16"
        },
        {
          "internalType": "uint8",
          "name": "purity",
          "type": "uint8"
        },
        {
          "internalType": "address",
          "name": "currentOwner",
          "type": "address"
        },
        {
          "internalType": "address",
          "name": "initialOwner",
          "type": "address"
        },
        {
          "internalType": "bytes10",
          "name": "shopId",
          "type": "bytes10"
        },
        {
          "internalType": "uint256",
          "name": "registrationDate",
          "type": "uint256"
        },
        {
          "internalType": "bytes3",
          "name": "goldType",
          "type": "bytes3"
        },
        {
          "internalType": "bytes6",
          "name": "bisHallmark",
          "type": "bytes6"
        }
      ],
      "stateMutability": "view",
      "type": "function",
      "constant": true
    },
    {
      "inputs": [],
      "name": "goldCounter",
      "outputs": [
        {
          "internalType": "uint256",
          "name": "",
          "type": "uint256"
        }
      ],
      "stateMutability": "view",
      "type": "function",
      "constant": true
    },
    {
      "inputs": [
        {
          "internalType": "uint16",
          "name": "weight",
          "type": "uint16"
        },
        {
          "internalType": "uint8",
          "name": "purity",
          "type": "uint8"
        },
        {
          "internalType": "bytes10",
          "name": "shopId",
          "type": "bytes10"
        },
        {
          "internalType": "bytes3",
          "name": "goldType",
          "type": "bytes3"
        },
        {
          "internalType": "bytes6",
          "name": "bisHallmark",
          "type": "bytes6"
        }
      ],
      "name": "registerGold",
      "outputs": [],
      "stateMutability": "nonpayable",
      "type": "function"
    },
    {
      "inputs": [
        {
          "internalType": "uint256",
          "name": "goldId",
          "type": "uint256"
        },
        {
          "internalType": "address",
          "name": "newOwner",
          "type": "address"
        }
      ],
      "name": "transferOwnership",
      "outputs": [],
      "stateMutability": "nonpayable",
      "type": "function"
    },
    {
      "inputs": [
        {
          "internalType": "uint256",
          "name": "goldId",
          "type": "uint256"
        }
      ],
      "name": "getGoldDetails",
      "outputs": [
        {
          "internalType": "uint256",
          "name": "",
          "type": "uint256"
        },
        {
          "internalType": "uint16",
          "name": "",
          "type": "uint16"
        },
        {
          "internalType": "uint8",
          "name": "",
          "type": "uint8"
        },
        {
          "internalType": "address",
          "name": "",
          "type": "address"
        },
        {
          "internalType": "address",
          "name": "",
          "type": "address"
        },
        {
          "internalType": "bytes10",
          "name": "",
          "type": "bytes10"
        },
        {
          "internalType": "uint256",
          "name": "",
          "type": "uint256"
        },
        {
          "internalType": "bytes3",
          "name": "",
          "type": "bytes3"
        },
        {
          "internalType": "bytes6",
          "name": "",
          "type": "bytes6"
        }
      ],
      "stateMutability": "view",
      "type": "function",
      "constant": true
    },
    {
      "inputs": [
        {
          "internalType": "uint256",
          "name": "goldId",
          "type": "uint256"
        }
      ],
      "name": "getTransferHistory",
      "outputs": [
        {
          "components": [
            {
              "internalType": "address",
              "name": "from",
              "type": "address"
            },
            {
              "internalType": "address",
              "name": "to",
              "type": "address"
            },
            {
              "internalType": "uint256",
              "name": "date",
              "type": "uint256"
            }
          ],
          "internalType": "struct GoldVerification.TransferRecord[]",
          "name": "",
          "type": "tuple[]"
        }
      ],
      "stateMutability": "view",
      "type": "function",
      "constant": true
    }
  ],
  "bytecode": "0x608060405234801561001057600080fd5b506110c5806100206000396000f3fe608060405234801561001057600080fd5b50600436106100625760003560e01c806329507f73146100675780638bb27d0214610083578063cf8014eb146100b3578063ddb2139d146100eb578063f5c8443c14610109578063fa5c3f4214610125575b600080fd5b610081600480360381019061007c9190610aa4565b61015d565b005b61009d60048036038101906100989190610a7b565b610489565b6040516100aa9190610d0a565b60405180910390f35b6100cd60048036038101906100c89190610a7b565b6105b3565b6040516100e299989796959493929190610db0565b60405180910390f35b6100f36106a5565b6040516101009190610d6c565b60405180910390f35b610123600480360381019061011e9190610a04565b6106ab565b005b61013f600480360381019061013a9190610a7b565b6108a1565b60405161015499989796959493929190610db0565b60405180910390f35b813373ffffffffffffffffffffffffffffffffffffffff1660008083815260200190815260200160002060010160039054906101000a900473ffffffffffffffffffffffffffffffffffffffff1673ffffffffffffffffffffffffffffffffffffffff1614610201576040517f08c379a00000000000000000000000000000000000000000000000000000000081526004016101f890610d2c565b60405180910390fd5b600073ffffffffffffffffffffffffffffffffffffffff168273ffffffffffffffffffffffffffffffffffffffff161415610271576040517f08c379a000000000000000000000000000000000000000000000000000000000815260040161026890610d4c565b60405180910390fd5b600080600085815260200190815260200160002060010160039054906101000a900473ffffffffffffffffffffffffffffffffffffffff1690508260008086815260200190815260200160002060010160036101000a81548173ffffffffffffffffffffffffffffffffffffffff021916908373ffffffffffffffffffffffffffffffffffffffff16021790555060008085815260200190815260200160002060050160405180606001604052808373ffffffffffffffffffffffffffffffffffffffff1681526020018573ffffffffffffffffffffffffffffffffffffffff16815260200142815250908060018154018082558091505060019003906000526020600020906003020160009091909190915060008201518160000160006101000a81548173ffffffffffffffffffffffffffffffffffffffff021916908373ffffffffffffffffffffffffffffffffffffffff16021790555060208201518160010160006101000a81548173ffffffffffffffffffffffffffffffffffffffff021916908373ffffffffffffffffffffffffffffffffffffffff1602179055506040820151816002015550508273ffffffffffffffffffffffffffffffffffffffff168173ffffffffffffffffffffffffffffffffffffffff167f2ab3413ed55dbac493490d4e85b103aebd6b78739af8b6fa18c1c111390b41818660405161047b9190610d6c565b60405180910390a350505050565b6060600080838152602001908152602001600020600501805480602002602001604051908101604052809291908181526020016000905b828210156105a857838290600052602060002090600302016040518060600160405290816000820160009054906101000a900473ffffffffffffffffffffffffffffffffffffffff1673ffffffffffffffffffffffffffffffffffffffff1673ffffffffffffffffffffffffffffffffffffffff1681526020016001820160009054906101000a900473ffffffffffffffffffffffffffffffffffffffff1673ffffffffffffffffffffffffffffffffffffffff1673ffffffffffffffffffffffffffffffffffffffff168152602001600282015481525050815260200190600101906104c0565b505050509050919050565b6000806000806000806000806000806000808c8152602001908152602001600020905080600001548160010160009054906101000a900461ffff168260010160029054906101000a900460ff168360010160039054906101000a900473ffffffffffffffffffffffffffffffffffffffff168460020160009054906101000a900473ffffffffffffffffffffffffffffffffffffffff168560020160149054906101000a900460b01b86600301548760040160009054906101000a900460e81b8860040160039054906101000a900460d01b995099509950995099509950995099509950509193959799909294969850565b60015481565b600042600154856040516020016106c493929190610ccd565b6040516020818303038152906040528051906020012060001c9050600160008154809291906106f290610f62565b919050555060008060008381526020019081526020016000209050818160000181905550868160010160006101000a81548161ffff021916908361ffff160217905550858160010160026101000a81548160ff021916908360ff160217905550338160010160036101000a81548173ffffffffffffffffffffffffffffffffffffffff021916908373ffffffffffffffffffffffffffffffffffffffff160217905550338160020160006101000a81548173ffffffffffffffffffffffffffffffffffffffff021916908373ffffffffffffffffffffffffffffffffffffffff160217905550848160020160146101000a81548169ffffffffffffffffffff021916908360b01c0217905550428160030181905550838160040160006101000a81548162ffffff021916908360e81c0217905550828160040160036101000a81548165ffffffffffff021916908360d01c02179055503373ffffffffffffffffffffffffffffffffffffffff167f1a2081b58b329cd59e83f6d8518f9797a6611046b8870de27434bf0a0fb38c778387604051610890929190610d87565b60405180910390a250505050505050565b60006020528060005260406000206000915090508060000154908060010160009054906101000a900461ffff16908060010160029054906101000a900460ff16908060010160039054906101000a900473ffffffffffffffffffffffffffffffffffffffff16908060020160009054906101000a900473ffffffffffffffffffffffffffffffffffffffff16908060020160149054906101000a900460b01b908060030154908060040160009054906101000a900460e81b908060040160039054906101000a900460d01b905089565b60008135905061098081610fee565b92915050565b60008135905061099581611005565b92915050565b6000813590506109aa8161101c565b92915050565b6000813590506109bf81611033565b92915050565b6000813590506109d48161104a565b92915050565b6000813590506109e981611061565b92915050565b6000813590506109fe81611078565b92915050565b600080600080600060a08688031215610a1c57600080fd5b6000610a2a888289016109c5565b9550506020610a3b888289016109ef565b9450506040610a4c88828901610986565b9350506060610a5d8882890161099b565b9250506080610a6e888289016109b0565b9150509295509295909350565b600060208284031215610a8d57600080fd5b6000610a9b848285016109da565b91505092915050565b60008060408385031215610ab757600080fd5b6000610ac5858286016109da565b9250506020610ad685828601610971565b9150509250929050565b6000610aec8383610c38565b60608301905092915050565b610b0181610e87565b82525050565b610b1081610e87565b82525050565b6000610b2182610e4d565b610b2b8185610e65565b9350610b3683610e3d565b8060005b83811015610b67578151610b4e8882610ae0565b9750610b5983610e58565b925050600181019050610b3a565b5085935050505092915050565b610b7d81610e99565b82525050565b610b94610b8f82610e99565b610fab565b82525050565b610ba381610ec5565b82525050565b610bb281610ef1565b82525050565b6000610bc5600d83610e76565b91507f4e6f7420746865206f776e6572000000000000000000000000000000000000006000830152602082019050919050565b6000610c05601183610e76565b91507f496e76616c6964206e6577206f776e65720000000000000000000000000000006000830152602082019050919050565b606082016000820151610c4e6000850182610af8565b506020820151610c616020850182610af8565b506040820151610c746040850182610c89565b50505050565b610c8381610f1d565b82525050565b610c9281610f4b565b82525050565b610ca181610f4b565b82525050565b610cb8610cb382610f4b565b610fb5565b82525050565b610cc781610f55565b82525050565b6000610cd98286610ca7565b602082019150610ce98285610ca7565b602082019150610cf98284610b83565b600a82019150819050949350505050565b60006020820190508181036000830152610d248184610b16565b905092915050565b60006020820190508181036000830152610d4581610bb8565b9050919050565b60006020820190508181036000830152610d6581610bf8565b9050919050565b6000602082019050610d816000830184610c98565b92915050565b6000604082019050610d9c6000830185610c98565b610da96020830184610b74565b9392505050565b600061012082019050610dc6600083018c610c98565b610dd3602083018b610c7a565b610de0604083018a610cbe565b610ded6060830189610b07565b610dfa6080830188610b07565b610e0760a0830187610b74565b610e1460c0830186610c98565b610e2160e0830185610b9a565b610e2f610100830184610ba9565b9a9950505050505050505050565b6000819050602082019050919050565b600081519050919050565b6000602082019050919050565b600082825260208201905092915050565b600082825260208201905092915050565b6000610e9282610f2b565b9050919050565b60007fffffffffffffffffffff0000000000000000000000000000000000000000000082169050919050565b60007fffffff000000000000000000000000000000000000000000000000000000000082169050919050565b60007fffffffffffff000000000000000000000000000000000000000000000000000082169050919050565b600061ffff82169050919050565b600073ffffffffffffffffffffffffffffffffffffffff82169050919050565b6000819050919050565b600060ff82169050919050565b6000610f6d82610f4b565b91507fffffffffffffffffffffffffffffffffffffffffffffffffffffffffffffffff821415610fa057610f9f610fbf565b5b600182019050919050565b6000819050919050565b6000819050919050565b7f4e487b7100000000000000000000000000000000000000000000000000000000600052601160045260246000fd5b610ff781610e87565b811461100257600080fd5b50565b61100e81610e99565b811461101957600080fd5b50565b61102581610ec5565b811461103057600080fd5b50565b61103c81610ef1565b811461104757600080fd5b50565b61105381610f1d565b811461105e57600080fd5b50565b61106a81610f4b565b811461107557600080fd5b50565b61108181610f55565b811461108c57600080fd5b5056fea26469706673582212206bcd354c1b6e116b498d0ae8bc77312fc6f6f21363221738d0cb48f847feec9e64736f6c63430008000033",
  "immutableReferences": {},
  "source": "// SPDX-License-Identifier: MIT\npragma solidity ^0.8.0;\n\ncontract GoldVerification {\n    // Struct to represent a gold asset\n    struct GoldAsset {\n        uint256 goldId;\n        uint16 weight; // in grams, maximum 99999 grams\n        uint8 purity; // in percentage, 0 - 100\n        address currentOwner;\n        address initialOwner; // Address of the first registrant\n        bytes10 shopId; // PAN string\n        uint256 registrationDate;\n        bytes3 goldType; // Type of gold (e.g., 24K, 22K)\n        bytes6 bisHallmark; // BIS Hallmark, 6-digit alphanumeric code\n        // Array to hold ownership transfer details\n        TransferRecord[] transferHistory;\n    }\n\n    // Struct to represent ownership transfer details\n    struct TransferRecord {\n        address from;\n        address to;\n        uint256 date; // timestamp of the transfer\n    }\n\n    // Mapping from goldId to GoldAsset\n    mapping(uint256 => GoldAsset) public goldAssets;\n\n    // Counter for generating unique gold IDs\n    uint256 public goldCounter;\n\n    // Events\n    event GoldRegistered(uint256 goldId, address indexed owner, bytes10 shopId);\n    event GoldTransferred(uint256 goldId, address indexed from, address indexed to);\n\n    // Function to register a new gold asset\n    function registerGold(\n        uint16 weight,\n        uint8 purity,\n        bytes10 shopId,\n        bytes3 goldType,\n        bytes6 bisHallmark\n    ) public {\n        // Generate a unique ID for the gold asset\n        uint256 goldId = uint256(keccak256(abi.encodePacked(block.timestamp, goldCounter, shopId)));\n        goldCounter++;\n\n        // Create the GoldAsset struct\n        GoldAsset storage newGold = goldAssets[goldId];\n        newGold.goldId = goldId;\n        newGold.weight = weight;\n        newGold.purity = purity;\n        newGold.currentOwner = msg.sender;\n        newGold.initialOwner = msg.sender; // Set initial owner\n        newGold.shopId = shopId;\n        newGold.registrationDate = block.timestamp;\n        newGold.goldType = goldType;\n        newGold.bisHallmark = bisHallmark;\n\n        // Emit the event\n        emit GoldRegistered(goldId, msg.sender, shopId);\n    }\n\n    // Function to transfer ownership of a gold asset\n    function transferOwnership(uint256 goldId, address newOwner) public onlyOwner(goldId) {\n        require(newOwner != address(0), \"Invalid new owner\");\n\n        // Update ownership\n        address previousOwner = goldAssets[goldId].currentOwner;\n        goldAssets[goldId].currentOwner = newOwner;\n\n        // Record the transfer\n        goldAssets[goldId].transferHistory.push(TransferRecord({\n            from: previousOwner,\n            to: newOwner,\n            date: block.timestamp\n        }));\n\n        // Emit the event\n        emit GoldTransferred(goldId, previousOwner, newOwner);\n    }\n\n    // Function to get the details of a gold asset\n    function getGoldDetails(uint256 goldId) public view returns (\n        uint256, uint16, uint8, address, address, bytes10, uint256, bytes3, bytes6\n    ) {\n        GoldAsset storage gold = goldAssets[goldId];\n        return (\n            gold.goldId,\n            gold.weight,\n            gold.purity,\n            gold.currentOwner,\n            gold.initialOwner, // Return initial owner\n            gold.shopId,\n            gold.registrationDate,\n            gold.goldType,\n            gold.bisHallmark\n        );\n    }\n\n    // Function to get the ownership transfer history for a gold asset\n    function getTransferHistory(uint256 goldId) public view returns (TransferRecord[] memory) {\n        return goldAssets[goldId].transferHistory;\n    }\n\n    // Modifier to check if the caller is the owner of a specific gold asset\n    modifier onlyOwner(uint256 goldId) {\n        require(goldAssets[goldId].currentOwner == msg.sender, \"Not the owner\");\n        _;\n    }\n}\n",
  "sourcePath": "/Users/I528714/3rdsem/smartContract/contracts/contract.sol",
  "compiler": {
    "name": "solc",
    "version": "0.8.0+commit.c7dfd78e.Emscripten.clang"
  },
  "schemaVersion": "3.4.16",
  "updatedAt": "2024-11-28T18:26:31.125Z",
  "networkType": "ethereum",
  "devdoc": {
    "kind": "dev",
    "methods": {},
    "version": 1
  },
  "userdoc": {
    "kind": "user",
    "methods": {},
    "version": 1
  }
}