{
  "contractName": "GoldVerification",
  "abi": [
    {
      "anonymous": false,
      "inputs": [
        {
          "indexed": false,
          "internalType": "uint256",
          "name": "goldId",
          "type": "uint256"
        },
        {
          "indexed": true,
          "internalType": "address",
          "name": "owner",
          "type": "address"
        },
        {
          "indexed": false,
          "internalType": "bytes15",
          "name": "shopId",
          "type": "bytes15"
        }
      ],
      "name": "GoldRegistered",
      "type": "event"
    },
    {
      "anonymous": false,
      "inputs": [
        {
          "indexed": false,
          "internalType": "uint256",
          "name": "goldId",
          "type": "uint256"
        },
        {
          "indexed": true,
          "internalType": "address",
          "name": "from",
          "type": "address"
        },
        {
          "indexed": true,
          "internalType": "address",
          "name": "to",
          "type": "address"
        }
      ],
      "name": "GoldTransferred",
      "type": "event"
    },
    {
      "inputs": [
        {
          "internalType": "uint256",
          "name": "",
          "type": "uint256"
        }
      ],
      "name": "goldAssets",
      "outputs": [
        {
          "internalType": "uint256",
          "name": "goldId",
          "type": "uint256"
        },
        {
          "internalType": "uint16",
          "name": "weight",
          "type": "uint16"
        },
        {
          "internalType": "uint8",
          "name": "purity",
          "type": "uint8"
        },
        {
          "internalType": "address",
          "name": "currentOwner",
          "type": "address"
        },
        {
          "internalType": "address",
          "name": "initialOwner",
          "type": "address"
        },
        {
          "internalType": "bytes15",
          "name": "shopId",
          "type": "bytes15"
        },
        {
          "internalType": "uint256",
          "name": "registrationDate",
          "type": "uint256"
        },
        {
          "internalType": "bytes3",
          "name": "goldType",
          "type": "bytes3"
        },
        {
          "internalType": "bytes1",
          "name": "bisHallmark",
          "type": "bytes1"
        }
      ],
      "stateMutability": "view",
      "type": "function",
      "constant": true
    },
    {
      "inputs": [],
      "name": "goldCounter",
      "outputs": [
        {
          "internalType": "uint256",
          "name": "",
          "type": "uint256"
        }
      ],
      "stateMutability": "view",
      "type": "function",
      "constant": true
    },
    {
      "inputs": [
        {
          "internalType": "uint16",
          "name": "weight",
          "type": "uint16"
        },
        {
          "internalType": "uint8",
          "name": "purity",
          "type": "uint8"
        },
        {
          "internalType": "bytes15",
          "name": "shopId",
          "type": "bytes15"
        },
        {
          "internalType": "bytes3",
          "name": "goldType",
          "type": "bytes3"
        },
        {
          "internalType": "bytes1",
          "name": "bisHallmark",
          "type": "bytes1"
        }
      ],
      "name": "registerGold",
      "outputs": [],
      "stateMutability": "nonpayable",
      "type": "function"
    },
    {
      "inputs": [
        {
          "internalType": "uint256",
          "name": "goldId",
          "type": "uint256"
        },
        {
          "internalType": "address",
          "name": "newOwner",
          "type": "address"
        }
      ],
      "name": "transferOwnership",
      "outputs": [],
      "stateMutability": "nonpayable",
      "type": "function"
    },
    {
      "inputs": [
        {
          "internalType": "uint256",
          "name": "goldId",
          "type": "uint256"
        }
      ],
      "name": "getGoldDetails",
      "outputs": [
        {
          "internalType": "uint256",
          "name": "",
          "type": "uint256"
        },
        {
          "internalType": "uint16",
          "name": "",
          "type": "uint16"
        },
        {
          "internalType": "uint8",
          "name": "",
          "type": "uint8"
        },
        {
          "internalType": "address",
          "name": "",
          "type": "address"
        },
        {
          "internalType": "address",
          "name": "",
          "type": "address"
        },
        {
          "internalType": "bytes15",
          "name": "",
          "type": "bytes15"
        },
        {
          "internalType": "uint256",
          "name": "",
          "type": "uint256"
        },
        {
          "internalType": "bytes3",
          "name": "",
          "type": "bytes3"
        },
        {
          "internalType": "bytes1",
          "name": "",
          "type": "bytes1"
        }
      ],
      "stateMutability": "view",
      "type": "function",
      "constant": true
    },
    {
      "inputs": [
        {
          "internalType": "uint256",
          "name": "goldId",
          "type": "uint256"
        }
      ],
      "name": "getTransferHistory",
      "outputs": [
        {
          "components": [
            {
              "internalType": "address",
              "name": "from",
              "type": "address"
            },
            {
              "internalType": "address",
              "name": "to",
              "type": "address"
            },
            {
              "internalType": "uint256",
              "name": "date",
              "type": "uint256"
            }
          ],
          "internalType": "struct GoldVerification.TransferRecord[]",
          "name": "",
          "type": "tuple[]"
        }
      ],
      "stateMutability": "view",
      "type": "function",
      "constant": true
    }
  ],
  "bytecode": "0x608060405234801561001057600080fd5b50610fe6806100206000396000f3fe608060405234801561001057600080fd5b50600436106100625760003560e01c806329507f73146100675780634e9a35cc146100835780638bb27d021461009f578063cf8014eb146100cf578063ddb2139d14610107578063fa5c3f4214610125575b600080fd5b610081600480360381019061007c91906109ff565b61015d565b005b61009d6004803603810190610098919061095f565b6103e4565b005b6100b960048036038101906100b491906109d6565b6105da565b6040516100c69190610c4b565b60405180910390f35b6100e960048036038101906100e491906109d6565b610704565b6040516100fe99989796959493929190610cd1565b60405180910390f35b61010f6107f6565b60405161011c9190610c8d565b60405180910390f35b61013f600480360381019061013a91906109d6565b6107fc565b60405161015499989796959493929190610cd1565b60405180910390f35b600080600084815260200190815260200160002090508060010160039054906101000a900473ffffffffffffffffffffffffffffffffffffffff1673ffffffffffffffffffffffffffffffffffffffff163373ffffffffffffffffffffffffffffffffffffffff1614610205576040517f08c379a00000000000000000000000000000000000000000000000000000000081526004016101fc90610c6d565b60405180910390fd5b8060060160405180606001604052808360010160039054906101000a900473ffffffffffffffffffffffffffffffffffffffff1673ffffffffffffffffffffffffffffffffffffffff1681526020018473ffffffffffffffffffffffffffffffffffffffff16815260200142815250908060018154018082558091505060019003906000526020600020906003020160009091909190915060008201518160000160006101000a81548173ffffffffffffffffffffffffffffffffffffffff021916908373ffffffffffffffffffffffffffffffffffffffff16021790555060208201518160010160006101000a81548173ffffffffffffffffffffffffffffffffffffffff021916908373ffffffffffffffffffffffffffffffffffffffff160217905550604082015181600201555050818160010160036101000a81548173ffffffffffffffffffffffffffffffffffffffff021916908373ffffffffffffffffffffffffffffffffffffffff1602179055508173ffffffffffffffffffffffffffffffffffffffff163373ffffffffffffffffffffffffffffffffffffffff167f2ab3413ed55dbac493490d4e85b103aebd6b78739af8b6fa18c1c111390b4181856040516103d79190610c8d565b60405180910390a3505050565b600042600154856040516020016103fd93929190610c0e565b6040516020818303038152906040528051906020012060001c90506001600081548092919061042b90610e83565b919050555060008060008381526020019081526020016000209050818160000181905550868160010160006101000a81548161ffff021916908361ffff160217905550858160010160026101000a81548160ff021916908360ff160217905550338160010160036101000a81548173ffffffffffffffffffffffffffffffffffffffff021916908373ffffffffffffffffffffffffffffffffffffffff160217905550338160020160006101000a81548173ffffffffffffffffffffffffffffffffffffffff021916908373ffffffffffffffffffffffffffffffffffffffff160217905550848160030160006101000a8154816effffffffffffffffffffffffffffff021916908360881c0217905550428160040181905550838160050160006101000a81548162ffffff021916908360e81c0217905550828160050160036101000a81548160ff021916908360f81c02179055503373ffffffffffffffffffffffffffffffffffffffff167f3cf122e3771f63774234d0dddcb468e707a998c594acf1be798bb905b2cb0c1f83876040516105c9929190610ca8565b60405180910390a250505050505050565b6060600080838152602001908152602001600020600601805480602002602001604051908101604052809291908181526020016000905b828210156106f957838290600052602060002090600302016040518060600160405290816000820160009054906101000a900473ffffffffffffffffffffffffffffffffffffffff1673ffffffffffffffffffffffffffffffffffffffff1673ffffffffffffffffffffffffffffffffffffffff1681526020016001820160009054906101000a900473ffffffffffffffffffffffffffffffffffffffff1673ffffffffffffffffffffffffffffffffffffffff1673ffffffffffffffffffffffffffffffffffffffff16815260200160028201548152505081526020019060010190610611565b505050509050919050565b6000806000806000806000806000806000808c8152602001908152602001600020905080600001548160010160009054906101000a900461ffff168260010160029054906101000a900460ff168360010160039054906101000a900473ffffffffffffffffffffffffffffffffffffffff168460020160009054906101000a900473ffffffffffffffffffffffffffffffffffffffff168560030160009054906101000a900460881b86600401548760050160009054906101000a900460e81b8860050160039054906101000a900460f81b995099509950995099509950995099509950509193959799909294969850565b60015481565b60006020528060005260406000206000915090508060000154908060010160009054906101000a900461ffff16908060010160029054906101000a900460ff16908060010160039054906101000a900473ffffffffffffffffffffffffffffffffffffffff16908060020160009054906101000a900473ffffffffffffffffffffffffffffffffffffffff16908060030160009054906101000a900460881b908060040154908060050160009054906101000a900460e81b908060050160039054906101000a900460f81b905089565b6000813590506108db81610f0f565b92915050565b6000813590506108f081610f26565b92915050565b60008135905061090581610f3d565b92915050565b60008135905061091a81610f54565b92915050565b60008135905061092f81610f6b565b92915050565b60008135905061094481610f82565b92915050565b60008135905061095981610f99565b92915050565b600080600080600060a0868803121561097757600080fd5b600061098588828901610920565b95505060206109968882890161094a565b94505060406109a7888289016108f6565b93505060606109b88882890161090b565b92505060806109c9888289016108e1565b9150509295509295909350565b6000602082840312156109e857600080fd5b60006109f684828501610935565b91505092915050565b60008060408385031215610a1257600080fd5b6000610a2085828601610935565b9250506020610a31858286016108cc565b9150509250929050565b6000610a478383610b79565b60608301905092915050565b610a5c81610da8565b82525050565b610a6b81610da8565b82525050565b6000610a7c82610d6e565b610a868185610d86565b9350610a9183610d5e565b8060005b83811015610ac2578151610aa98882610a3b565b9750610ab483610d79565b925050600181019050610a95565b5085935050505092915050565b610ad881610de6565b82525050565b610aef610aea82610de6565b610ecc565b82525050565b610afe81610dba565b82525050565b610b0d81610e12565b82525050565b6000610b20602d83610d97565b91507f4f6e6c79207468652063757272656e74206f776e65722063616e207472616e7360008301527f666572206f776e657273686970000000000000000000000000000000000000006020830152604082019050919050565b606082016000820151610b8f6000850182610a53565b506020820151610ba26020850182610a53565b506040820151610bb56040850182610bca565b50505050565b610bc481610e3e565b82525050565b610bd381610e6c565b82525050565b610be281610e6c565b82525050565b610bf9610bf482610e6c565b610ed6565b82525050565b610c0881610e76565b82525050565b6000610c1a8286610be8565b602082019150610c2a8285610be8565b602082019150610c3a8284610ade565b600f82019150819050949350505050565b60006020820190508181036000830152610c658184610a71565b905092915050565b60006020820190508181036000830152610c8681610b13565b9050919050565b6000602082019050610ca26000830184610bd9565b92915050565b6000604082019050610cbd6000830185610bd9565b610cca6020830184610acf565b9392505050565b600061012082019050610ce7600083018c610bd9565b610cf4602083018b610bbb565b610d01604083018a610bff565b610d0e6060830189610a62565b610d1b6080830188610a62565b610d2860a0830187610acf565b610d3560c0830186610bd9565b610d4260e0830185610b04565b610d50610100830184610af5565b9a9950505050505050505050565b6000819050602082019050919050565b600081519050919050565b6000602082019050919050565b600082825260208201905092915050565b600082825260208201905092915050565b6000610db382610e4c565b9050919050565b60007fff0000000000000000000000000000000000000000000000000000000000000082169050919050565b60007fffffffffffffffffffffffffffffff000000000000000000000000000000000082169050919050565b60007fffffff000000000000000000000000000000000000000000000000000000000082169050919050565b600061ffff82169050919050565b600073ffffffffffffffffffffffffffffffffffffffff82169050919050565b6000819050919050565b600060ff82169050919050565b6000610e8e82610e6c565b91507fffffffffffffffffffffffffffffffffffffffffffffffffffffffffffffffff821415610ec157610ec0610ee0565b5b600182019050919050565b6000819050919050565b6000819050919050565b7f4e487b7100000000000000000000000000000000000000000000000000000000600052601160045260246000fd5b610f1881610da8565b8114610f2357600080fd5b50565b610f2f81610dba565b8114610f3a57600080fd5b50565b610f4681610de6565b8114610f5157600080fd5b50565b610f5d81610e12565b8114610f6857600080fd5b50565b610f7481610e3e565b8114610f7f57600080fd5b50565b610f8b81610e6c565b8114610f9657600080fd5b50565b610fa281610e76565b8114610fad57600080fd5b5056fea26469706673582212200e08b3a57b545db35a8115fa0e18feba6d224b3be81eb9ceb00561325793b77964736f6c63430008000033",
  "immutableReferences": {},
  "source": "// SPDX-License-Identifier: MIT\npragma solidity ^0.8.0;\n\ncontract GoldVerification {\n    // Struct to represent a gold asset\n    struct GoldAsset {\n        uint256 goldId;\n        uint16 weight; // in grams, maximum 99999 grams\n        uint8 purity; // in percentage, 0 - 100\n        address currentOwner;\n        address initialOwner; // Address of the first registrant\n        bytes15 shopId; // PAN string\n        uint256 registrationDate;\n        bytes3 goldType; // Type of gold (e.g., 24K, 22K)\n        bytes1 bisHallmark; // BIS Hallmark, 1-byte alphanumeric code\n        // Array to hold ownership transfer details\n        TransferRecord[] transferHistory;\n    }\n\n    // Struct to represent ownership transfer details\n    struct TransferRecord {\n        address from;\n        address to;\n        uint256 date; // timestamp of the transfer\n    }\n\n    // Mapping from goldId to GoldAsset\n    mapping(uint256 => GoldAsset) public goldAssets;\n\n    // Counter for generating unique gold IDs\n    uint256 public goldCounter;\n\n    // Events\n    event GoldRegistered(uint256 goldId, address indexed owner, bytes15 shopId);\n    event GoldTransferred(uint256 goldId, address indexed from, address indexed to);\n\n    // Function to register a new gold asset\n    function registerGold(\n        uint16 weight,\n        uint8 purity,\n        bytes15 shopId,\n        bytes3 goldType,\n        bytes1 bisHallmark\n    ) public {\n        // Generate a unique ID for the gold asset\n        uint256 goldId = uint256(keccak256(abi.encodePacked(block.timestamp, goldCounter, shopId)));\n        goldCounter++;\n\n        // Create the GoldAsset struct\n        GoldAsset storage newGold = goldAssets[goldId];\n        newGold.goldId = goldId;\n        newGold.weight = weight;\n        newGold.purity = purity;\n        newGold.currentOwner = msg.sender;\n        newGold.initialOwner = msg.sender; // Set initial owner\n        newGold.shopId = shopId;\n        newGold.registrationDate = block.timestamp;\n        newGold.goldType = goldType;\n        newGold.bisHallmark = bisHallmark;\n\n        // Emit the event\n        emit GoldRegistered(goldId, msg.sender, shopId);\n    }\n\n    // Function to transfer ownership of a gold asset\n    function transferOwnership(uint256 goldId, address newOwner) public {\n        GoldAsset storage gold = goldAssets[goldId];\n        require(msg.sender == gold.currentOwner, \"Only the current owner can transfer ownership\");\n        gold.transferHistory.push(TransferRecord({\n            from: gold.currentOwner,\n            to: newOwner,\n            date: block.timestamp\n        }));\n        gold.currentOwner = newOwner;\n        emit GoldTransferred(goldId, msg.sender, newOwner);\n    }\n\n    // Function to get the details of a gold asset\n    function getGoldDetails(uint256 goldId) public view returns (\n        uint256, uint16, uint8, address, address, bytes15, uint256, bytes3, bytes1\n    ) {\n        GoldAsset storage gold = goldAssets[goldId];\n        return (\n            gold.goldId,\n            gold.weight,\n            gold.purity,\n            gold.currentOwner,\n            gold.initialOwner, // Return initial owner\n            gold.shopId,\n            gold.registrationDate,\n            gold.goldType,\n            gold.bisHallmark\n        );\n    }\n\n    // Function to get the ownership transfer history for a gold asset\n    function getTransferHistory(uint256 goldId) public view returns (TransferRecord[] memory) {\n        return goldAssets[goldId].transferHistory;\n    }\n\n    // Modifier to check if the caller is the owner of a specific gold asset\n    modifier onlyOwner(uint256 goldId) {\n        require(goldAssets[goldId].currentOwner == msg.sender, \"Not the owner\");\n        _;\n    }\n}\n",
  "sourcePath": "/Users/I528714/3rdsem/Project-SESAPZG-504-569/truffle/contracts/contract.sol",
  "compiler": {
    "name": "solc",
    "version": "0.8.0+commit.c7dfd78e.Emscripten.clang"
  },
  "schemaVersion": "3.4.16",
  "updatedAt": "2024-11-29T15:11:28.393Z",
  "networkType": "ethereum",
  "devdoc": {
    "kind": "dev",
    "methods": {},
    "version": 1
  },
  "userdoc": {
    "kind": "user",
    "methods": {},
    "version": 1
  }
}